:1009080020320834393E42464A4D505254555656C4
:10091800565553514E4B4845413D3834302C2723CA
:100928001F1C191613110F0E0E0E0F101214171A82
:050938001E22262B30F9
:10088C00E4F53A753B05F53C20901B3091183092FD
:10089C001575A07F7F327E0012093EE4F5A07F32F1
:1008AC00FE12093E80E520912330902030921D7479
:1008BC0008253CF8E6F5A07F017E0012093E053CB8
:1008CC00E53CC3943240E2E4F53C80DD20922C30D0
:1008DC009029309126853AA07F017E0012093EE5D1
:1008EC003B253AF53AC394FF4005753BFB80E0E5A8
:0B08FC003AD3940050D9753B0580D41E
:0109070022CD
:10093E00E4FDFCC3ED9FEC9E5015E4FBFA0BBB00EF
:0F094E00010AEB64704A70F50DBD00010C80E4E6
:01095D002277
:03000000020800F3
:0C080000787FE4F6D8FD75813C020847C3
:10080C0002088CE493A3F8E493A34003F68001F26E
:10081C0008DFF48029E493A3F85407240CC8C333ED
:10082C00C4540F4420C8834004F456800146F6DFBC
:10083C00E4800B0102040810204080900908E47E3B
:10084C00019360BCA3FF543F30E509541FFEE493B1
:10085C00A360010ECF54C025E060A840B8E493A378
:10086C00FAE493A3F8E493A3C8C582C8CAC583CAA3
:10087C00F0A3C8C582C8CAC583CADFE9DEE780BE5B
:01093D0000B9
:00000001FF
